{
  "contractName": "Voting",
  "abi": [
    {
      "inputs": [],
      "stateMutability": "nonpayable",
      "type": "constructor"
    },
    {
      "inputs": [
        {
          "internalType": "uint256",
          "name": "",
          "type": "uint256"
        }
      ],
      "name": "candidateArray",
      "outputs": [
        {
          "internalType": "address",
          "name": "",
          "type": "address"
        }
      ],
      "stateMutability": "view",
      "type": "function",
      "constant": true
    },
    {
      "inputs": [
        {
          "internalType": "uint256",
          "name": "",
          "type": "uint256"
        }
      ],
      "name": "lastWinners",
      "outputs": [
        {
          "components": [
            {
              "internalType": "address",
              "name": "candidateAddress",
              "type": "address"
            },
            {
              "internalType": "string",
              "name": "name",
              "type": "string"
            },
            {
              "internalType": "uint256",
              "name": "numberOfVotes",
              "type": "uint256"
            },
            {
              "internalType": "string",
              "name": "party",
              "type": "string"
            }
          ],
          "internalType": "struct Voting.Candidate",
          "name": "candidate",
          "type": "tuple"
        },
        {
          "internalType": "string",
          "name": "title",
          "type": "string"
        }
      ],
      "stateMutability": "view",
      "type": "function",
      "constant": true
    },
    {
      "inputs": [],
      "name": "leadingCandidate",
      "outputs": [
        {
          "internalType": "address",
          "name": "",
          "type": "address"
        }
      ],
      "stateMutability": "view",
      "type": "function",
      "constant": true
    },
    {
      "inputs": [],
      "name": "owner",
      "outputs": [
        {
          "internalType": "address",
          "name": "",
          "type": "address"
        }
      ],
      "stateMutability": "view",
      "type": "function",
      "constant": true
    },
    {
      "inputs": [
        {
          "internalType": "uint256",
          "name": "",
          "type": "uint256"
        }
      ],
      "name": "requestedCandidate",
      "outputs": [
        {
          "internalType": "address",
          "name": "candidateAddress",
          "type": "address"
        },
        {
          "internalType": "string",
          "name": "name",
          "type": "string"
        },
        {
          "internalType": "uint256",
          "name": "numberOfVotes",
          "type": "uint256"
        },
        {
          "internalType": "string",
          "name": "party",
          "type": "string"
        }
      ],
      "stateMutability": "view",
      "type": "function",
      "constant": true
    },
    {
      "inputs": [
        {
          "internalType": "uint256",
          "name": "",
          "type": "uint256"
        }
      ],
      "name": "votersArray",
      "outputs": [
        {
          "internalType": "address",
          "name": "",
          "type": "address"
        }
      ],
      "stateMutability": "view",
      "type": "function",
      "constant": true
    },
    {
      "inputs": [],
      "name": "isAdmin",
      "outputs": [
        {
          "internalType": "address",
          "name": "",
          "type": "address"
        }
      ],
      "stateMutability": "view",
      "type": "function",
      "constant": true
    },
    {
      "inputs": [],
      "name": "getVotingCount",
      "outputs": [
        {
          "internalType": "uint256",
          "name": "",
          "type": "uint256"
        }
      ],
      "stateMutability": "view",
      "type": "function",
      "constant": true
    },
    {
      "inputs": [],
      "name": "getStatus",
      "outputs": [
        {
          "internalType": "bool",
          "name": "",
          "type": "bool"
        }
      ],
      "stateMutability": "view",
      "type": "function",
      "constant": true
    },
    {
      "inputs": [],
      "name": "getLastWinners",
      "outputs": [
        {
          "components": [
            {
              "components": [
                {
                  "internalType": "address",
                  "name": "candidateAddress",
                  "type": "address"
                },
                {
                  "internalType": "string",
                  "name": "name",
                  "type": "string"
                },
                {
                  "internalType": "uint256",
                  "name": "numberOfVotes",
                  "type": "uint256"
                },
                {
                  "internalType": "string",
                  "name": "party",
                  "type": "string"
                }
              ],
              "internalType": "struct Voting.Candidate",
              "name": "candidate",
              "type": "tuple"
            },
            {
              "internalType": "string",
              "name": "title",
              "type": "string"
            }
          ],
          "internalType": "struct Voting.LastWinner[]",
          "name": "",
          "type": "tuple[]"
        }
      ],
      "stateMutability": "view",
      "type": "function",
      "constant": true
    },
    {
      "inputs": [],
      "name": "getLastWinner",
      "outputs": [
        {
          "components": [
            {
              "components": [
                {
                  "internalType": "address",
                  "name": "candidateAddress",
                  "type": "address"
                },
                {
                  "internalType": "string",
                  "name": "name",
                  "type": "string"
                },
                {
                  "internalType": "uint256",
                  "name": "numberOfVotes",
                  "type": "uint256"
                },
                {
                  "internalType": "string",
                  "name": "party",
                  "type": "string"
                }
              ],
              "internalType": "struct Voting.Candidate",
              "name": "candidate",
              "type": "tuple"
            },
            {
              "internalType": "string",
              "name": "title",
              "type": "string"
            }
          ],
          "internalType": "struct Voting.LastWinner",
          "name": "",
          "type": "tuple"
        }
      ],
      "stateMutability": "view",
      "type": "function",
      "constant": true
    },
    {
      "inputs": [
        {
          "internalType": "string",
          "name": "_title",
          "type": "string"
        }
      ],
      "name": "startVoting",
      "outputs": [],
      "stateMutability": "nonpayable",
      "type": "function"
    },
    {
      "inputs": [],
      "name": "stopVoting",
      "outputs": [],
      "stateMutability": "nonpayable",
      "type": "function"
    },
    {
      "inputs": [
        {
          "internalType": "string",
          "name": "_name",
          "type": "string"
        },
        {
          "internalType": "string",
          "name": "_party",
          "type": "string"
        },
        {
          "internalType": "address",
          "name": "_candidateAddress",
          "type": "address"
        }
      ],
      "name": "addCandidate",
      "outputs": [],
      "stateMutability": "nonpayable",
      "type": "function"
    },
    {
      "inputs": [],
      "name": "getAllCandidates",
      "outputs": [
        {
          "components": [
            {
              "internalType": "address",
              "name": "candidateAddress",
              "type": "address"
            },
            {
              "internalType": "string",
              "name": "name",
              "type": "string"
            },
            {
              "internalType": "uint256",
              "name": "numberOfVotes",
              "type": "uint256"
            },
            {
              "internalType": "string",
              "name": "party",
              "type": "string"
            }
          ],
          "internalType": "struct Voting.Candidate[]",
          "name": "",
          "type": "tuple[]"
        }
      ],
      "stateMutability": "view",
      "type": "function",
      "constant": true
    },
    {
      "inputs": [
        {
          "internalType": "address",
          "name": "_candidate",
          "type": "address"
        }
      ],
      "name": "vote",
      "outputs": [],
      "stateMutability": "nonpayable",
      "type": "function"
    },
    {
      "inputs": [
        {
          "internalType": "string",
          "name": "_name",
          "type": "string"
        },
        {
          "internalType": "string",
          "name": "_party",
          "type": "string"
        }
      ],
      "name": "registerForCandidate",
      "outputs": [],
      "stateMutability": "nonpayable",
      "type": "function"
    },
    {
      "inputs": [],
      "name": "getRequestedCandidates",
      "outputs": [
        {
          "components": [
            {
              "internalType": "address",
              "name": "candidateAddress",
              "type": "address"
            },
            {
              "internalType": "string",
              "name": "name",
              "type": "string"
            },
            {
              "internalType": "uint256",
              "name": "numberOfVotes",
              "type": "uint256"
            },
            {
              "internalType": "string",
              "name": "party",
              "type": "string"
            }
          ],
          "internalType": "struct Voting.Candidate[]",
          "name": "",
          "type": "tuple[]"
        }
      ],
      "stateMutability": "view",
      "type": "function",
      "constant": true
    },
    {
      "inputs": [
        {
          "internalType": "uint256",
          "name": "index",
          "type": "uint256"
        }
      ],
      "name": "acceptCandidate",
      "outputs": [],
      "stateMutability": "nonpayable",
      "type": "function"
    },
    {
      "inputs": [
        {
          "internalType": "uint256",
          "name": "index",
          "type": "uint256"
        }
      ],
      "name": "removeRequestedCandidate",
      "outputs": [],
      "stateMutability": "nonpayable",
      "type": "function"
    }
  ],
  "bytecode": "0x608060405234801561001057600080fd5b5033600460006101000a81548173ffffffffffffffffffffffffffffffffffffffff021916908373ffffffffffffffffffffffffffffffffffffffff1602179055506000600160006101000a81548160ff0219169083151502179055506000600381905550613fe9806100846000396000f3fe608060405234801561001057600080fd5b506004361061012c5760003560e01c80637a9d60e0116100ad5780639c2aab5e116100715780639c2aab5e14610320578063adda2c2e1461033e578063b6db75a01461036f578063f88649a11461038d578063fab2f86b146103ab5761012c565b80637a9d60e0146102795780638b55f6fe146102ac5780638da5cb5b146102c8578063930c3a29146102e657806395690936146103025761012c565b806353da4247116100f457806353da4247146101d757806356b96ccc1461020757806360f270ff146102235780636dd7d8ea1461024157806372d53d6e1461025d5761012c565b80630b32ff77146101315780632e6997fe1461014d57806335a893a11461016b57806347a553ad1461019b5780634e69d560146101b9575b600080fd5b61014b60048036038101906101469190612c9f565b6103b5565b005b61015561061b565b6040516101629190612efd565b60405180910390f35b61018560048036038101906101809190612f4b565b6108cf565b6040516101929190612f87565b60405180910390f35b6101a361090e565b6040516101b09190612f87565b60405180910390f35b6101c1610934565b6040516101ce9190612fbd565b60405180910390f35b6101f160048036038101906101ec9190612f4b565b61094b565b6040516101fe9190612f87565b60405180910390f35b610221600480360381019061021c9190612f4b565b61098a565b005b61022b610b8a565b6040516102389190612efd565b60405180910390f35b61025b60048036038101906102569190612fd8565b610d6d565b005b61027760048036038101906102729190613005565b611139565b005b610293600480360381019061028e9190612f4b565b6112af565b6040516102a394939291906130a7565b60405180910390f35b6102c660048036038101906102c191906130fa565b61141f565b005b6102d061160c565b6040516102dd9190612f87565b60405180910390f35b61030060048036038101906102fb9190612f4b565b611632565b005b61030a611a52565b6040516103179190613278565b60405180910390f35b610328611d20565b604051610335919061329a565b60405180910390f35b61035860048036038101906103539190612f4b565b611d2a565b60405161036692919061331f565b60405180910390f35b610377611f74565b6040516103849190612f87565b60405180910390f35b610395611f9e565b6040516103a2919061339a565b60405180910390f35b6103b3612258565b005b600460009054906101000a900473ffffffffffffffffffffffffffffffffffffffff1673ffffffffffffffffffffffffffffffffffffffff163373ffffffffffffffffffffffffffffffffffffffff1614610445576040517f08c379a000000000000000000000000000000000000000000000000000000000815260040161043c9061342e565b60405180910390fd5b600160009054906101000a900460ff1615610495576040517f08c379a000000000000000000000000000000000000000000000000000000000815260040161048c906134c0565b60405180910390fd5b61049d612970565b838160200181905250600081604001818152505082816060018190525081816000019073ffffffffffffffffffffffffffffffffffffffff16908173ffffffffffffffffffffffffffffffffffffffff168152505080600560008473ffffffffffffffffffffffffffffffffffffffff1673ffffffffffffffffffffffffffffffffffffffff16815260200190815260200160002060008201518160000160006101000a81548173ffffffffffffffffffffffffffffffffffffffff021916908373ffffffffffffffffffffffffffffffffffffffff160217905550602082015181600101908161058e91906136ec565b506040820151816002015560608201518160030190816105ae91906136ec565b509050506007829080600181540180825580915050600190039060005260206000200160009091909190916101000a81548173ffffffffffffffffffffffffffffffffffffffff021916908373ffffffffffffffffffffffffffffffffffffffff16021790555050505050565b6060600060078054905067ffffffffffffffff81111561063e5761063d612b16565b5b60405190808252806020026020018201604052801561067757816020015b610664612970565b81526020019060019003908161065c5790505b50905060005b6007805490508110156108c75760056000600783815481106106a2576106a16137be565b5b9060005260206000200160009054906101000a900473ffffffffffffffffffffffffffffffffffffffff1673ffffffffffffffffffffffffffffffffffffffff1673ffffffffffffffffffffffffffffffffffffffff1681526020019081526020016000206040518060800160405290816000820160009054906101000a900473ffffffffffffffffffffffffffffffffffffffff1673ffffffffffffffffffffffffffffffffffffffff1673ffffffffffffffffffffffffffffffffffffffff1681526020016001820180546107789061350f565b80601f01602080910402602001604051908101604052809291908181526020018280546107a49061350f565b80156107f15780601f106107c6576101008083540402835291602001916107f1565b820191906000526020600020905b8154815290600101906020018083116107d457829003601f168201915b50505050508152602001600282015481526020016003820180546108149061350f565b80601f01602080910402602001604051908101604052809291908181526020018280546108409061350f565b801561088d5780601f106108625761010080835404028352916020019161088d565b820191906000526020600020905b81548152906001019060200180831161087057829003601f168201915b5050505050815250508282815181106108a9576108a86137be565b5b602002602001018190525080806108bf9061381c565b91505061067d565b819250505090565b600781815481106108df57600080fd5b906000526020600020016000915054906101000a900473ffffffffffffffffffffffffffffffffffffffff1681565b600b60009054906101000a900473ffffffffffffffffffffffffffffffffffffffff1681565b6000600160009054906101000a900460ff16905090565b6008818154811061095b57600080fd5b906000526020600020016000915054906101000a900473ffffffffffffffffffffffffffffffffffffffff1681565b600460009054906101000a900473ffffffffffffffffffffffffffffffffffffffff1673ffffffffffffffffffffffffffffffffffffffff163373ffffffffffffffffffffffffffffffffffffffff1614610a1a576040517f08c379a0000000000000000000000000000000000000000000000000000000008152600401610a11906138d6565b60405180910390fd5b60096001600980549050610a2e91906138f6565b81548110610a3f57610a3e6137be565b5b906000526020600020906004020160098281548110610a6157610a606137be565b5b90600052602060002090600402016000820160009054906101000a900473ffffffffffffffffffffffffffffffffffffffff168160000160006101000a81548173ffffffffffffffffffffffffffffffffffffffff021916908373ffffffffffffffffffffffffffffffffffffffff16021790555060018201816001019081610aea9190613940565b506002820154816002015560038201816003019081610b099190613940565b509050506009805480610b1f57610b1e613a28565b5b6001900381819060005260206000209060040201600080820160006101000a81549073ffffffffffffffffffffffffffffffffffffffff0219169055600182016000610b6b91906129ae565b6002820160009055600382016000610b8391906129ae565b5050905550565b60606009805480602002602001604051908101604052809291908181526020016000905b82821015610d6457838290600052602060002090600402016040518060800160405290816000820160009054906101000a900473ffffffffffffffffffffffffffffffffffffffff1673ffffffffffffffffffffffffffffffffffffffff1673ffffffffffffffffffffffffffffffffffffffff168152602001600182018054610c379061350f565b80601f0160208091040260200160405190810160405280929190818152602001828054610c639061350f565b8015610cb05780601f10610c8557610100808354040283529160200191610cb0565b820191906000526020600020905b815481529060010190602001808311610c9357829003601f168201915b5050505050815260200160028201548152602001600382018054610cd39061350f565b80601f0160208091040260200160405190810160405280929190818152602001828054610cff9061350f565b8015610d4c5780601f10610d2157610100808354040283529160200191610d4c565b820191906000526020600020905b815481529060010190602001808311610d2f57829003601f168201915b50505050508152505081526020019060010190610bae565b50505050905090565b6000600660003373ffffffffffffffffffffffffffffffffffffffff1673ffffffffffffffffffffffffffffffffffffffff16815260200190815260200160002060000160149054906101000a900460ff1690508015610e02576040517f08c379a0000000000000000000000000000000000000000000000000000000008152600401610df990613aa3565b60405180910390fd5b600160009054906101000a900460ff16610e51576040517f08c379a0000000000000000000000000000000000000000000000000000000008152600401610e4890613b0f565b60405180910390fd5b600460009054906101000a900473ffffffffffffffffffffffffffffffffffffffff1673ffffffffffffffffffffffffffffffffffffffff163373ffffffffffffffffffffffffffffffffffffffff1603610ee1576040517f08c379a0000000000000000000000000000000000000000000000000000000008152600401610ed890613b7b565b60405180910390fd5b3373ffffffffffffffffffffffffffffffffffffffff168273ffffffffffffffffffffffffffffffffffffffff1603610f4f576040517f08c379a0000000000000000000000000000000000000000000000000000000008152600401610f4690613be7565b60405180910390fd5b610f576129ee565b33816000019073ffffffffffffffffffffffffffffffffffffffff16908173ffffffffffffffffffffffffffffffffffffffff1681525050600181602001901515908115158152505080600660003373ffffffffffffffffffffffffffffffffffffffff1673ffffffffffffffffffffffffffffffffffffffff16815260200190815260200160002060008201518160000160006101000a81548173ffffffffffffffffffffffffffffffffffffffff021916908373ffffffffffffffffffffffffffffffffffffffff16021790555060208201518160000160146101000a81548160ff021916908315150217905550905050600254600560008573ffffffffffffffffffffffffffffffffffffffff1673ffffffffffffffffffffffffffffffffffffffff16815260200190815260200160002060020160008154809291906110a09061381c565b91905055106111345782600b60006101000a81548173ffffffffffffffffffffffffffffffffffffffff021916908373ffffffffffffffffffffffffffffffffffffffff160217905550600560008473ffffffffffffffffffffffffffffffffffffffff1673ffffffffffffffffffffffffffffffffffffffff168152602001908152602001600020600201546002819055505b505050565b600460009054906101000a900473ffffffffffffffffffffffffffffffffffffffff1673ffffffffffffffffffffffffffffffffffffffff163373ffffffffffffffffffffffffffffffffffffffff16146111c9576040517f08c379a00000000000000000000000000000000000000000000000000000000081526004016111c090613c79565b60405180910390fd5b60026007805490501015611212576040517f08c379a000000000000000000000000000000000000000000000000000000000815260040161120990613d0b565b60405180910390fd5b600160009054906101000a900460ff1615611262576040517f08c379a000000000000000000000000000000000000000000000000000000000815260040161125990613d77565b60405180910390fd5b60018060006101000a81548160ff021916908315150217905550806000908161128b91906136ec565b506000600281905550600360008154809291906112a79061381c565b919050555050565b600981815481106112bf57600080fd5b90600052602060002090600402016000915090508060000160009054906101000a900473ffffffffffffffffffffffffffffffffffffffff16908060010180546113089061350f565b80601f01602080910402602001604051908101604052809291908181526020018280546113349061350f565b80156113815780601f1061135657610100808354040283529160200191611381565b820191906000526020600020905b81548152906001019060200180831161136457829003601f168201915b50505050509080600201549080600301805461139c9061350f565b80601f01602080910402602001604051908101604052809291908181526020018280546113c89061350f565b80156114155780601f106113ea57610100808354040283529160200191611415565b820191906000526020600020905b8154815290600101906020018083116113f857829003601f168201915b5050505050905084565b600160009054906101000a900460ff161561146f576040517f08c379a000000000000000000000000000000000000000000000000000000000815260040161146690613de3565b60405180910390fd5b600460009054906101000a900473ffffffffffffffffffffffffffffffffffffffff1673ffffffffffffffffffffffffffffffffffffffff163373ffffffffffffffffffffffffffffffffffffffff16036114ff576040517f08c379a00000000000000000000000000000000000000000000000000000000081526004016114f690613e4f565b60405180910390fd5b611507612970565b828160200181905250818160600181905250600081604001818152505033816000019073ffffffffffffffffffffffffffffffffffffffff16908173ffffffffffffffffffffffffffffffffffffffff1681525050600981908060018154018082558091505060019003906000526020600020906004020160009091909190915060008201518160000160006101000a81548173ffffffffffffffffffffffffffffffffffffffff021916908373ffffffffffffffffffffffffffffffffffffffff16021790555060208201518160010190816115e491906136ec565b5060408201518160020155606082015181600301908161160491906136ec565b505050505050565b600460009054906101000a900473ffffffffffffffffffffffffffffffffffffffff1681565b600160009054906101000a900460ff1615611682576040517f08c379a0000000000000000000000000000000000000000000000000000000008152600401611679906134c0565b60405180910390fd5b600980549050811080611696575060008110155b6116d5576040517f08c379a00000000000000000000000000000000000000000000000000000000081526004016116cc90613ebb565b60405180910390fd5b600460009054906101000a900473ffffffffffffffffffffffffffffffffffffffff1673ffffffffffffffffffffffffffffffffffffffff163373ffffffffffffffffffffffffffffffffffffffff1614611765576040517f08c379a000000000000000000000000000000000000000000000000000000000815260040161175c906138d6565b60405180910390fd5b60006009828154811061177b5761177a6137be565b5b90600052602060002090600402016040518060800160405290816000820160009054906101000a900473ffffffffffffffffffffffffffffffffffffffff1673ffffffffffffffffffffffffffffffffffffffff1673ffffffffffffffffffffffffffffffffffffffff1681526020016001820180546117fa9061350f565b80601f01602080910402602001604051908101604052809291908181526020018280546118269061350f565b80156118735780601f1061184857610100808354040283529160200191611873565b820191906000526020600020905b81548152906001019060200180831161185657829003601f168201915b50505050508152602001600282015481526020016003820180546118969061350f565b80601f01602080910402602001604051908101604052809291908181526020018280546118c29061350f565b801561190f5780601f106118e45761010080835404028352916020019161190f565b820191906000526020600020905b8154815290600101906020018083116118f257829003601f168201915b50505050508152505090508060056000836000015173ffffffffffffffffffffffffffffffffffffffff1673ffffffffffffffffffffffffffffffffffffffff16815260200190815260200160002060008201518160000160006101000a81548173ffffffffffffffffffffffffffffffffffffffff021916908373ffffffffffffffffffffffffffffffffffffffff16021790555060208201518160010190816119ba91906136ec565b506040820151816002015560608201518160030190816119da91906136ec565b50905050600781600001519080600181540180825580915050600190039060005260206000200160009091909190916101000a81548173ffffffffffffffffffffffffffffffffffffffff021916908373ffffffffffffffffffffffffffffffffffffffff160217905550611a4e8261098a565b5050565b6060600060035411611a99576040517f08c379a0000000000000000000000000000000000000000000000000000000008152600401611a9090613f27565b60405180910390fd5b600a805480602002602001604051908101604052809291908181526020016000905b82821015611d175783829060005260206000209060050201604051806040016040529081600082016040518060800160405290816000820160009054906101000a900473ffffffffffffffffffffffffffffffffffffffff1673ffffffffffffffffffffffffffffffffffffffff1673ffffffffffffffffffffffffffffffffffffffff168152602001600182018054611b549061350f565b80601f0160208091040260200160405190810160405280929190818152602001828054611b809061350f565b8015611bcd5780601f10611ba257610100808354040283529160200191611bcd565b820191906000526020600020905b815481529060010190602001808311611bb057829003601f168201915b5050505050815260200160028201548152602001600382018054611bf09061350f565b80601f0160208091040260200160405190810160405280929190818152602001828054611c1c9061350f565b8015611c695780601f10611c3e57610100808354040283529160200191611c69565b820191906000526020600020905b815481529060010190602001808311611c4c57829003601f168201915b5050505050815250508152602001600482018054611c869061350f565b80601f0160208091040260200160405190810160405280929190818152602001828054611cb29061350f565b8015611cff5780601f10611cd457610100808354040283529160200191611cff565b820191906000526020600020905b815481529060010190602001808311611ce257829003601f168201915b50505050508152505081526020019060010190611abb565b50505050905090565b6000600354905090565b600a8181548110611d3a57600080fd5b9060005260206000209060050201600091509050806000016040518060800160405290816000820160009054906101000a900473ffffffffffffffffffffffffffffffffffffffff1673ffffffffffffffffffffffffffffffffffffffff1673ffffffffffffffffffffffffffffffffffffffff168152602001600182018054611dc39061350f565b80601f0160208091040260200160405190810160405280929190818152602001828054611def9061350f565b8015611e3c5780601f10611e1157610100808354040283529160200191611e3c565b820191906000526020600020905b815481529060010190602001808311611e1f57829003601f168201915b5050505050815260200160028201548152602001600382018054611e5f9061350f565b80601f0160208091040260200160405190810160405280929190818152602001828054611e8b9061350f565b8015611ed85780601f10611ead57610100808354040283529160200191611ed8565b820191906000526020600020905b815481529060010190602001808311611ebb57829003601f168201915b50505050508152505090806004018054611ef19061350f565b80601f0160208091040260200160405190810160405280929190818152602001828054611f1d9061350f565b8015611f6a5780601f10611f3f57610100808354040283529160200191611f6a565b820191906000526020600020905b815481529060010190602001808311611f4d57829003601f168201915b5050505050905082565b6000600460009054906101000a900473ffffffffffffffffffffffffffffffffffffffff16905090565b611fa6612a20565b600060035411611feb576040517f08c379a0000000000000000000000000000000000000000000000000000000008152600401611fe290613f27565b60405180910390fd5b600a6001600a80549050611fff91906138f6565b815481106120105761200f6137be565b5b9060005260206000209060050201604051806040016040529081600082016040518060800160405290816000820160009054906101000a900473ffffffffffffffffffffffffffffffffffffffff1673ffffffffffffffffffffffffffffffffffffffff1673ffffffffffffffffffffffffffffffffffffffff16815260200160018201805461209f9061350f565b80601f01602080910402602001604051908101604052809291908181526020018280546120cb9061350f565b80156121185780601f106120ed57610100808354040283529160200191612118565b820191906000526020600020905b8154815290600101906020018083116120fb57829003601f168201915b505050505081526020016002820154815260200160038201805461213b9061350f565b80601f01602080910402602001604051908101604052809291908181526020018280546121679061350f565b80156121b45780601f10612189576101008083540402835291602001916121b4565b820191906000526020600020905b81548152906001019060200180831161219757829003601f168201915b50505050508152505081526020016004820180546121d19061350f565b80601f01602080910402602001604051908101604052809291908181526020018280546121fd9061350f565b801561224a5780601f1061221f5761010080835404028352916020019161224a565b820191906000526020600020905b81548152906001019060200180831161222d57829003601f168201915b505050505081525050905090565b600460009054906101000a900473ffffffffffffffffffffffffffffffffffffffff1673ffffffffffffffffffffffffffffffffffffffff163373ffffffffffffffffffffffffffffffffffffffff16146122e8576040517f08c379a00000000000000000000000000000000000000000000000000000000081526004016122df90613c79565b60405180910390fd5b600160009054906101000a900460ff16612337576040517f08c379a000000000000000000000000000000000000000000000000000000000815260040161232e90613f93565b60405180910390fd5b6000600160006101000a81548160ff0219169083151502179055506001600254106126bd57612364612a20565b60056000600b60009054906101000a900473ffffffffffffffffffffffffffffffffffffffff1673ffffffffffffffffffffffffffffffffffffffff1673ffffffffffffffffffffffffffffffffffffffff1681526020019081526020016000206040518060800160405290816000820160009054906101000a900473ffffffffffffffffffffffffffffffffffffffff1673ffffffffffffffffffffffffffffffffffffffff1673ffffffffffffffffffffffffffffffffffffffff1681526020016001820180546124369061350f565b80601f01602080910402602001604051908101604052809291908181526020018280546124629061350f565b80156124af5780601f10612484576101008083540402835291602001916124af565b820191906000526020600020905b81548152906001019060200180831161249257829003601f168201915b50505050508152602001600282015481526020016003820180546124d29061350f565b80601f01602080910402602001604051908101604052809291908181526020018280546124fe9061350f565b801561254b5780601f106125205761010080835404028352916020019161254b565b820191906000526020600020905b81548152906001019060200180831161252e57829003601f168201915b5050505050815250508160000181905250600080546125699061350f565b80601f01602080910402602001604051908101604052809291908181526020018280546125959061350f565b80156125e25780601f106125b7576101008083540402835291602001916125e2565b820191906000526020600020905b8154815290600101906020018083116125c557829003601f168201915b50505050508160200181905250600a81908060018154018082558091505060019003906000526020600020906005020160009091909190915060008201518160000160008201518160000160006101000a81548173ffffffffffffffffffffffffffffffffffffffff021916908373ffffffffffffffffffffffffffffffffffffffff160217905550602082015181600101908161268091906136ec565b506040820151816002015560608201518160030190816126a091906136ec565b50505060208201518160040190816126b891906136ec565b505050505b60405180602001604052806000815250600090816126db91906136ec565b5060005b6007805490508110156127ce576005600060078381548110612704576127036137be565b5b9060005260206000200160009054906101000a900473ffffffffffffffffffffffffffffffffffffffff1673ffffffffffffffffffffffffffffffffffffffff1673ffffffffffffffffffffffffffffffffffffffff168152602001908152602001600020600080820160006101000a81549073ffffffffffffffffffffffffffffffffffffffff02191690556001820160006127a191906129ae565b60028201600090556003820160006127b991906129ae565b505080806127c69061381c565b9150506126df565b5060005b6008805490508110156128ad5760066000600883815481106127f7576127f66137be565b5b9060005260206000200160009054906101000a900473ffffffffffffffffffffffffffffffffffffffff1673ffffffffffffffffffffffffffffffffffffffff1673ffffffffffffffffffffffffffffffffffffffff168152602001908152602001600020600080820160006101000a81549073ffffffffffffffffffffffffffffffffffffffff02191690556000820160146101000a81549060ff0219169055505080806128a59061381c565b9150506127d2565b50600067ffffffffffffffff8111156128c9576128c8612b16565b5b6040519080825280602002602001820160405280156128f75781602001602082028036833780820191505090505b506007908051906020019061290d929190612a40565b50600067ffffffffffffffff81111561292957612928612b16565b5b6040519080825280602002602001820160405280156129575781602001602082028036833780820191505090505b506008908051906020019061296d929190612a40565b50565b6040518060800160405280600073ffffffffffffffffffffffffffffffffffffffff1681526020016060815260200160008152602001606081525090565b5080546129ba9061350f565b6000825580601f106129cc57506129eb565b601f0160209004906000526020600020908101906129ea9190612aca565b5b50565b6040518060400160405280600073ffffffffffffffffffffffffffffffffffffffff1681526020016000151581525090565b6040518060400160405280612a33612970565b8152602001606081525090565b828054828255906000526020600020908101928215612ab9579160200282015b82811115612ab85782518260006101000a81548173ffffffffffffffffffffffffffffffffffffffff021916908373ffffffffffffffffffffffffffffffffffffffff16021790555091602001919060010190612a60565b5b509050612ac69190612aca565b5090565b5b80821115612ae3576000816000905550600101612acb565b5090565b6000604051905090565b600080fd5b600080fd5b600080fd5b600080fd5b6000601f19601f8301169050919050565b7f4e487b7100000000000000000000000000000000000000000000000000000000600052604160045260246000fd5b612b4e82612b05565b810181811067ffffffffffffffff82111715612b6d57612b6c612b16565b5b80604052505050565b6000612b80612ae7565b9050612b8c8282612b45565b919050565b600067ffffffffffffffff821115612bac57612bab612b16565b5b612bb582612b05565b9050602081019050919050565b82818337600083830152505050565b6000612be4612bdf84612b91565b612b76565b905082815260208101848484011115612c0057612bff612b00565b5b612c0b848285612bc2565b509392505050565b600082601f830112612c2857612c27612afb565b5b8135612c38848260208601612bd1565b91505092915050565b600073ffffffffffffffffffffffffffffffffffffffff82169050919050565b6000612c6c82612c41565b9050919050565b612c7c81612c61565b8114612c8757600080fd5b50565b600081359050612c9981612c73565b92915050565b600080600060608486031215612cb857612cb7612af1565b5b600084013567ffffffffffffffff811115612cd657612cd5612af6565b5b612ce286828701612c13565b935050602084013567ffffffffffffffff811115612d0357612d02612af6565b5b612d0f86828701612c13565b9250506040612d2086828701612c8a565b9150509250925092565b600081519050919050565b600082825260208201905092915050565b6000819050602082019050919050565b612d5f81612c61565b82525050565b600081519050919050565b600082825260208201905092915050565b60005b83811015612d9f578082015181840152602081019050612d84565b60008484015250505050565b6000612db682612d65565b612dc08185612d70565b9350612dd0818560208601612d81565b612dd981612b05565b840191505092915050565b6000819050919050565b612df781612de4565b82525050565b6000608083016000830151612e156000860182612d56565b5060208301518482036020860152612e2d8282612dab565b9150506040830151612e426040860182612dee565b5060608301518482036060860152612e5a8282612dab565b9150508091505092915050565b6000612e738383612dfd565b905092915050565b6000602082019050919050565b6000612e9382612d2a565b612e9d8185612d35565b935083602082028501612eaf85612d46565b8060005b85811015612eeb5784840389528151612ecc8582612e67565b9450612ed783612e7b565b925060208a01995050600181019050612eb3565b50829750879550505050505092915050565b60006020820190508181036000830152612f178184612e88565b905092915050565b612f2881612de4565b8114612f3357600080fd5b50565b600081359050612f4581612f1f565b92915050565b600060208284031215612f6157612f60612af1565b5b6000612f6f84828501612f36565b91505092915050565b612f8181612c61565b82525050565b6000602082019050612f9c6000830184612f78565b92915050565b60008115159050919050565b612fb781612fa2565b82525050565b6000602082019050612fd26000830184612fae565b92915050565b600060208284031215612fee57612fed612af1565b5b6000612ffc84828501612c8a565b91505092915050565b60006020828403121561301b5761301a612af1565b5b600082013567ffffffffffffffff81111561303957613038612af6565b5b61304584828501612c13565b91505092915050565b600082825260208201905092915050565b600061306a82612d65565b613074818561304e565b9350613084818560208601612d81565b61308d81612b05565b840191505092915050565b6130a181612de4565b82525050565b60006080820190506130bc6000830187612f78565b81810360208301526130ce818661305f565b90506130dd6040830185613098565b81810360608301526130ef818461305f565b905095945050505050565b6000806040838503121561311157613110612af1565b5b600083013567ffffffffffffffff81111561312f5761312e612af6565b5b61313b85828601612c13565b925050602083013567ffffffffffffffff81111561315c5761315b612af6565b5b61316885828601612c13565b9150509250929050565b600081519050919050565b600082825260208201905092915050565b6000819050602082019050919050565b600060408301600083015184820360008601526131bb8282612dfd565b915050602083015184820360208601526131d58282612dab565b9150508091505092915050565b60006131ee838361319e565b905092915050565b6000602082019050919050565b600061320e82613172565b613218818561317d565b93508360208202850161322a8561318e565b8060005b85811015613266578484038952815161324785826131e2565b9450613252836131f6565b925060208a0199505060018101905061322e565b50829750879550505050505092915050565b600060208201905081810360008301526132928184613203565b905092915050565b60006020820190506132af6000830184613098565b92915050565b60006080830160008301516132cd6000860182612d56565b50602083015184820360208601526132e58282612dab565b91505060408301516132fa6040860182612dee565b50606083015184820360608601526133128282612dab565b9150508091505092915050565b6000604082019050818103600083015261333981856132b5565b9050818103602083015261334d818461305f565b90509392505050565b600060408301600083015184820360008601526133738282612dfd565b9150506020830151848203602086015261338d8282612dab565b9150508091505092915050565b600060208201905081810360008301526133b48184613356565b905092915050565b7f54686973206f7065726174696f6e2063616e206f6e6c7920626520706572666f60008201527f726d6564206279206f776e657200000000000000000000000000000000000000602082015250565b6000613418602d8361304e565b9150613423826133bc565b604082019050919050565b600060208201905081810360008301526134478161340b565b9050919050565b7f596f752063616e2774206164642063616e64696461746520696e2072756e6e6960008201527f6e6720766f74696e670000000000000000000000000000000000000000000000602082015250565b60006134aa60298361304e565b91506134b58261344e565b604082019050919050565b600060208201905081810360008301526134d98161349d565b9050919050565b7f4e487b7100000000000000000000000000000000000000000000000000000000600052602260045260246000fd5b6000600282049050600182168061352757607f821691505b60208210810361353a576135396134e0565b5b50919050565b60008190508160005260206000209050919050565b60006020601f8301049050919050565b600082821b905092915050565b6000600883026135a27fffffffffffffffffffffffffffffffffffffffffffffffffffffffffffffffff82613565565b6135ac8683613565565b95508019841693508086168417925050509392505050565b6000819050919050565b60006135e96135e46135df84612de4565b6135c4565b612de4565b9050919050565b6000819050919050565b613603836135ce565b61361761360f826135f0565b848454613572565b825550505050565b600090565b61362c61361f565b6136378184846135fa565b505050565b5b8181101561365b57613650600082613624565b60018101905061363d565b5050565b601f8211156136a05761367181613540565b61367a84613555565b81016020851015613689578190505b61369d61369585613555565b83018261363c565b50505b505050565b600082821c905092915050565b60006136c3600019846008026136a5565b1980831691505092915050565b60006136dc83836136b2565b9150826002028217905092915050565b6136f582612d65565b67ffffffffffffffff81111561370e5761370d612b16565b5b613718825461350f565b61372382828561365f565b600060209050601f8311600181146137565760008415613744578287015190505b61374e85826136d0565b8655506137b6565b601f19841661376486613540565b60005b8281101561378c57848901518255600182019150602085019450602081019050613767565b868310156137a957848901516137a5601f8916826136b2565b8355505b6001600288020188555050505b505050505050565b7f4e487b7100000000000000000000000000000000000000000000000000000000600052603260045260246000fd5b7f4e487b7100000000000000000000000000000000000000000000000000000000600052601160045260246000fd5b600061382782612de4565b91507fffffffffffffffffffffffffffffffffffffffffffffffffffffffffffffffff8203613859576138586137ed565b5b600182019050919050565b7f5468697320616374696f6e2063616e206f6e6c7920626520706572666f726d6560008201527f64206279206f776e657200000000000000000000000000000000000000000000602082015250565b60006138c0602a8361304e565b91506138cb82613864565b604082019050919050565b600060208201905081810360008301526138ef816138b3565b9050919050565b600061390182612de4565b915061390c83612de4565b9250828203905081811115613924576139236137ed565b5b92915050565b6000815490506139398161350f565b9050919050565b81810361394e575050613a26565b6139578261392a565b67ffffffffffffffff8111156139705761396f612b16565b5b61397a825461350f565b61398582828561365f565b6000601f8311600181146139b457600084156139a2578287015490505b6139ac85826136d0565b865550613a1f565b601f1984166139c287613540565b96506139cd86613540565b60005b828110156139f5578489015482556001820191506001850194506020810190506139d0565b86831015613a125784890154613a0e601f8916826136b2565b8355505b6001600288020188555050505b5050505050505b565b7f4e487b7100000000000000000000000000000000000000000000000000000000600052603160045260246000fd5b7f596f75206861766520616c726561647920766f74650000000000000000000000600082015250565b6000613a8d60158361304e565b9150613a9882613a57565b602082019050919050565b60006020820190508181036000830152613abc81613a80565b9050919050565b7f566f74696e67206973206e6f7420737461727465642079657400000000000000600082015250565b6000613af960198361304e565b9150613b0482613ac3565b602082019050919050565b60006020820190508181036000830152613b2881613aec565b9050919050565b7f4f776e65722063616e6e6f7420766f7465000000000000000000000000000000600082015250565b6000613b6560118361304e565b9150613b7082613b2f565b602082019050919050565b60006020820190508181036000830152613b9481613b58565b9050919050565b7f596f752063616e6e6f7420766f746520796f757273656c660000000000000000600082015250565b6000613bd160188361304e565b9150613bdc82613b9b565b602082019050919050565b60006020820190508181036000830152613c0081613bc4565b9050919050565b7f5468697320616374696f6e2063616e206f6e6c7920626520706572666f726d6560008201527f64206279204f776e657200000000000000000000000000000000000000000000602082015250565b6000613c63602a8361304e565b9150613c6e82613c07565b604082019050919050565b60006020820190508181036000830152613c9281613c56565b9050919050565b7f5468657265206973206e6f2063616e64696461746520746f207374617274207660008201527f6f74650000000000000000000000000000000000000000000000000000000000602082015250565b6000613cf560238361304e565b9150613d0082613c99565b604082019050919050565b60006020820190508181036000830152613d2481613ce8565b9050919050565b7f53746f702063757272656e7420766f74696e6700000000000000000000000000600082015250565b6000613d6160138361304e565b9150613d6c82613d2b565b602082019050919050565b60006020820190508181036000830152613d9081613d54565b9050919050565b7f596f752063616e2774207265676973746572206e6f772e000000000000000000600082015250565b6000613dcd60178361304e565b9150613dd882613d97565b602082019050919050565b60006020820190508181036000830152613dfc81613dc0565b9050919050565b7f4f776e65722063616e6e6f742062652072656769737465726564000000000000600082015250565b6000613e39601a8361304e565b9150613e4482613e03565b602082019050919050565b60006020820190508181036000830152613e6881613e2c565b9050919050565b7f496e76616c696420696e64657800000000000000000000000000000000000000600082015250565b6000613ea5600d8361304e565b9150613eb082613e6f565b602082019050919050565b60006020820190508181036000830152613ed481613e98565b9050919050565b7f5468657265206973206e6f206c6173742057696e6e6572000000000000000000600082015250565b6000613f1160178361304e565b9150613f1c82613edb565b602082019050919050565b60006020820190508181036000830152613f4081613f04565b9050919050565b7f566f74696e67206973206e6f7420796574207374617274656400000000000000600082015250565b6000613f7d60198361304e565b9150613f8882613f47565b602082019050919050565b60006020820190508181036000830152613fac81613f70565b905091905056fea2646970667358221220f70226695d0931a7a01b2c6d1ceb84ef10c91535abf5047451a7fd8b3e2ff80c64736f6c63430008110033",
  "immutableReferences": {},
  "source": "// SPDX-License-Identifier: MIT\npragma solidity ^0.8.0;\n\ncontract Voting {\n    struct Candidate{\n        address candidateAddress;\n        string name;\n        uint numberOfVotes;\n        string party;\n    }\n    struct Voter{\n        address voterAddress;\n        bool isVoted; \n    }\n    struct LastWinner{\n        Candidate candidate;\n        string title;\n    }\n    string title;\n    bool status;\n    uint256 maxVote;\n    uint256 votingCount;\n    address public owner;\n    mapping (address => Candidate) candidates;\n    mapping (address => Voter) voters;\n    address[] public candidateArray;\n    address[] public votersArray;\n    Candidate[] public requestedCandidate;\n    LastWinner[] public lastWinners;\n    address public leadingCandidate;\n    \n    constructor(){\n        owner = msg.sender;\n        status = false;\n        votingCount =0;\n\n        //delete following lines\n        // votingCount=2;\n        // Candidate memory c;\n        // c.name = \"Hardik Gehlot\";\n        // c.party = \"Bhartiya Janta Party\";\n        // c.numberOfVotes = 10;\n        // c.candidateAddress = 0xC7E748a7b9ef9238aCdC89FD2912100ae517BcA0;\n        // requestedCandidate.push(c);\n        // candidates[c.candidateAddress] = c;\n        // candidateArray.push(c.candidateAddress);\n        // LastWinner memory lw;\n        // lw.candidate = c;\n        // lw.title = \"PM 2020\";\n        // lastWinners.push(lw);\n    }\n    function isAdmin() public view returns(address){\n        return owner;\n    }\n    function getVotingCount() public view returns(uint256){\n        return votingCount;\n    }\n    function getStatus() public view returns(bool){\n        return status;\n    }\n    function getLastWinners() public view returns(LastWinner[] memory){\n        require(votingCount>0,\"There is no last Winner\");\n        return lastWinners;\n    }\n    function getLastWinner() public view returns(LastWinner memory){\n        require(votingCount>0,\"There is no last Winner\");\n        return lastWinners[lastWinners.length -1];\n    }\n    function startVoting(string memory _title) public{\n        require(msg.sender==owner,\"This action can only be performed by Owner\");\n        require(candidateArray.length>=2,\"There is no candidate to start vote\");\n        require(!status,\"Stop current voting\");\n        status=true;\n        title = _title;\n        maxVote = 0;\n        votingCount++;\n    }\n    function stopVoting() public{\n        require(msg.sender==owner,\"This action can only be performed by Owner\");\n        require(status,\"Voting is not yet started\");\n        status=false;\n        if(maxVote >= 1){\n            LastWinner memory last;\n            last.candidate = candidates[leadingCandidate];\n            last.title = title;\n            lastWinners.push(last);\n        }\n        title = \"\";\n        for(uint256 i=0;i<candidateArray.length;i++){\n            delete candidates[candidateArray[i]];\n        }\n        for(uint256 i=0;i<votersArray.length;i++){\n            delete voters[votersArray[i]];\n        }\n        candidateArray = new address[](0);\n        votersArray = new address[](0);\n    }\n    function addCandidate(string memory _name,string memory _party,address _candidateAddress) public{\n        require(msg.sender==owner,\"This operation can only be performed by owner\");\n        require(!status,\"You can't add candidate in running voting\");\n        Candidate memory c;\n        c.name = _name;\n        c.numberOfVotes = 0;\n        c.party=_party;\n        c.candidateAddress = _candidateAddress;\n        candidates[_candidateAddress]=c;\n        candidateArray.push(_candidateAddress);\n    }\n    function getAllCandidates() public view returns(Candidate[] memory){\n        Candidate[] memory result = new Candidate[](candidateArray.length);\n        uint256 i = 0;\n        for(i=0;i<candidateArray.length;i++){\n            result[i]=candidates[candidateArray[i]];\n        }\n        return result;\n    }\n    function vote(address _candidate) public{\n        bool isVoted = voters[msg.sender].isVoted;\n        require(!isVoted ,\"You have already vote\");\n        require(status,\"Voting is not started yet\");\n        require(msg.sender!=owner,\"Owner cannot vote\");\n        require(_candidate!=msg.sender,\"You cannot vote yourself\");\n        Voter memory v;\n        v.voterAddress = msg.sender;\n        v.isVoted = true;\n        voters[msg.sender] = v;\n        if(candidates[_candidate].numberOfVotes++ >= maxVote){\n            leadingCandidate = _candidate;\n            maxVote = candidates[_candidate].numberOfVotes;\n        }\n    }\n    function registerForCandidate(string memory _name,string memory _party) public{\n        require(!status,\"You can't register now.\");\n        require(msg.sender != owner,\"Owner cannot be registered\");\n        Candidate memory c;\n        c.name = _name;\n        c.party = _party;\n        c.numberOfVotes = 0;\n        c.candidateAddress = msg.sender;\n        requestedCandidate.push(c);\n    }\n    function getRequestedCandidates() public view returns (Candidate[] memory) {\n        return requestedCandidate;\n    }\n    function acceptCandidate(uint index) public {\n        require(!status,\"You can't add candidate in running voting\");\n        require(index < requestedCandidate.length || index >= 0, \"Invalid index\");\n        require(msg.sender == owner,\"This action can only be performed by owner\"\n        );\n        Candidate memory c = requestedCandidate[index];\n        candidates[c.candidateAddress]=c;\n        candidateArray.push(c.candidateAddress);\n        removeRequestedCandidate(index);\n    }\n    function removeRequestedCandidate(uint index) public {\n        require(msg.sender == owner,\"This action can only be performed by owner\");\n        requestedCandidate[index] = requestedCandidate[requestedCandidate.length - 1];\n        requestedCandidate.pop();\n    }\n}\n",
  "sourcePath": "/home/pervysage/vs-code/Blockchain/E-Voting-System/e-voting-system/src/backend/contracts/Voting.sol",
  "compiler": {
    "name": "solc",
    "version": "0.8.17+commit.8df45f5f.Emscripten.clang"
  },
  "schemaVersion": "3.4.10",
  "updatedAt": "2022-12-22T12:53:53.279Z",
  "networkType": "ethereum",
  "devdoc": {
    "kind": "dev",
    "methods": {},
    "version": 1
  },
  "userdoc": {
    "kind": "user",
    "methods": {},
    "version": 1
  }
}