{
  "contractName": "Voting",
  "abi": [
    {
      "inputs": [],
      "stateMutability": "nonpayable",
      "type": "constructor"
    },
    {
      "inputs": [
        {
          "internalType": "uint256",
          "name": "",
          "type": "uint256"
        }
      ],
      "name": "candidateArray",
      "outputs": [
        {
          "internalType": "address",
          "name": "",
          "type": "address"
        }
      ],
      "stateMutability": "view",
      "type": "function",
      "constant": true
    },
    {
      "inputs": [
        {
          "internalType": "uint256",
          "name": "",
          "type": "uint256"
        }
      ],
      "name": "lastWinners",
      "outputs": [
        {
          "components": [
            {
              "internalType": "address",
              "name": "candidateAddress",
              "type": "address"
            },
            {
              "internalType": "string",
              "name": "name",
              "type": "string"
            },
            {
              "internalType": "uint256",
              "name": "numberOfVotes",
              "type": "uint256"
            },
            {
              "internalType": "string",
              "name": "party",
              "type": "string"
            }
          ],
          "internalType": "struct Voting.Candidate",
          "name": "candidate",
          "type": "tuple"
        },
        {
          "internalType": "string",
          "name": "title",
          "type": "string"
        }
      ],
      "stateMutability": "view",
      "type": "function",
      "constant": true
    },
    {
      "inputs": [],
      "name": "leadingCandidate",
      "outputs": [
        {
          "internalType": "address",
          "name": "",
          "type": "address"
        }
      ],
      "stateMutability": "view",
      "type": "function",
      "constant": true
    },
    {
      "inputs": [],
      "name": "owner",
      "outputs": [
        {
          "internalType": "address",
          "name": "",
          "type": "address"
        }
      ],
      "stateMutability": "view",
      "type": "function",
      "constant": true
    },
    {
      "inputs": [
        {
          "internalType": "uint256",
          "name": "",
          "type": "uint256"
        }
      ],
      "name": "requestedCandidate",
      "outputs": [
        {
          "internalType": "address",
          "name": "candidateAddress",
          "type": "address"
        },
        {
          "internalType": "string",
          "name": "name",
          "type": "string"
        },
        {
          "internalType": "uint256",
          "name": "numberOfVotes",
          "type": "uint256"
        },
        {
          "internalType": "string",
          "name": "party",
          "type": "string"
        }
      ],
      "stateMutability": "view",
      "type": "function",
      "constant": true
    },
    {
      "inputs": [
        {
          "internalType": "uint256",
          "name": "",
          "type": "uint256"
        }
      ],
      "name": "votersArray",
      "outputs": [
        {
          "internalType": "address",
          "name": "",
          "type": "address"
        }
      ],
      "stateMutability": "view",
      "type": "function",
      "constant": true
    },
    {
      "inputs": [],
      "name": "getVotingCount",
      "outputs": [
        {
          "internalType": "uint256",
          "name": "",
          "type": "uint256"
        }
      ],
      "stateMutability": "view",
      "type": "function",
      "constant": true
    },
    {
      "inputs": [],
      "name": "getStatus",
      "outputs": [
        {
          "internalType": "bool",
          "name": "",
          "type": "bool"
        }
      ],
      "stateMutability": "view",
      "type": "function",
      "constant": true
    },
    {
      "inputs": [],
      "name": "getLastWinner",
      "outputs": [
        {
          "components": [
            {
              "components": [
                {
                  "internalType": "address",
                  "name": "candidateAddress",
                  "type": "address"
                },
                {
                  "internalType": "string",
                  "name": "name",
                  "type": "string"
                },
                {
                  "internalType": "uint256",
                  "name": "numberOfVotes",
                  "type": "uint256"
                },
                {
                  "internalType": "string",
                  "name": "party",
                  "type": "string"
                }
              ],
              "internalType": "struct Voting.Candidate",
              "name": "candidate",
              "type": "tuple"
            },
            {
              "internalType": "string",
              "name": "title",
              "type": "string"
            }
          ],
          "internalType": "struct Voting.LastWinner[]",
          "name": "",
          "type": "tuple[]"
        }
      ],
      "stateMutability": "view",
      "type": "function",
      "constant": true
    },
    {
      "inputs": [
        {
          "internalType": "string",
          "name": "_title",
          "type": "string"
        }
      ],
      "name": "startVoting",
      "outputs": [],
      "stateMutability": "nonpayable",
      "type": "function"
    },
    {
      "inputs": [],
      "name": "stopVoting",
      "outputs": [],
      "stateMutability": "nonpayable",
      "type": "function"
    },
    {
      "inputs": [
        {
          "internalType": "string",
          "name": "_name",
          "type": "string"
        },
        {
          "internalType": "string",
          "name": "_party",
          "type": "string"
        },
        {
          "internalType": "address",
          "name": "_candidateAddress",
          "type": "address"
        }
      ],
      "name": "addCandidate",
      "outputs": [],
      "stateMutability": "nonpayable",
      "type": "function"
    },
    {
      "inputs": [],
      "name": "getAllCandidates",
      "outputs": [
        {
          "components": [
            {
              "internalType": "address",
              "name": "candidateAddress",
              "type": "address"
            },
            {
              "internalType": "string",
              "name": "name",
              "type": "string"
            },
            {
              "internalType": "uint256",
              "name": "numberOfVotes",
              "type": "uint256"
            },
            {
              "internalType": "string",
              "name": "party",
              "type": "string"
            }
          ],
          "internalType": "struct Voting.Candidate[]",
          "name": "",
          "type": "tuple[]"
        }
      ],
      "stateMutability": "view",
      "type": "function",
      "constant": true
    },
    {
      "inputs": [
        {
          "internalType": "address",
          "name": "_candidate",
          "type": "address"
        }
      ],
      "name": "vote",
      "outputs": [],
      "stateMutability": "nonpayable",
      "type": "function"
    },
    {
      "inputs": [
        {
          "internalType": "string",
          "name": "_name",
          "type": "string"
        },
        {
          "internalType": "string",
          "name": "_party",
          "type": "string"
        }
      ],
      "name": "registerForCandidate",
      "outputs": [],
      "stateMutability": "nonpayable",
      "type": "function"
    },
    {
      "inputs": [],
      "name": "getRequestedCandidates",
      "outputs": [
        {
          "components": [
            {
              "internalType": "address",
              "name": "candidateAddress",
              "type": "address"
            },
            {
              "internalType": "string",
              "name": "name",
              "type": "string"
            },
            {
              "internalType": "uint256",
              "name": "numberOfVotes",
              "type": "uint256"
            },
            {
              "internalType": "string",
              "name": "party",
              "type": "string"
            }
          ],
          "internalType": "struct Voting.Candidate[]",
          "name": "",
          "type": "tuple[]"
        }
      ],
      "stateMutability": "view",
      "type": "function",
      "constant": true
    },
    {
      "inputs": [
        {
          "internalType": "uint256",
          "name": "index",
          "type": "uint256"
        }
      ],
      "name": "acceptCandidate",
      "outputs": [],
      "stateMutability": "nonpayable",
      "type": "function"
    },
    {
      "inputs": [
        {
          "internalType": "uint256",
          "name": "index",
          "type": "uint256"
        }
      ],
      "name": "removeRequestedCandidate",
      "outputs": [],
      "stateMutability": "nonpayable",
      "type": "function"
    }
  ],
  "bytecode": "0x608060405234801561001057600080fd5b5033600460006101000a81548173ffffffffffffffffffffffffffffffffffffffff021916908373ffffffffffffffffffffffffffffffffffffffff1602179055506000600160006101000a81548160ff0219169083151502179055506000600381905550613b1f806100846000396000f3fe608060405234801561001057600080fd5b50600436106101165760003560e01c806372d53d6e116100a2578063930c3a2911610071578063930c3a29146102d05780639c2aab5e146102ec578063adda2c2e1461030a578063f88649a11461033b578063fab2f86b1461035957610116565b806372d53d6e146102475780637a9d60e0146102635780638b55f6fe146102965780638da5cb5b146102b257610116565b80634e69d560116100e95780634e69d560146101a357806353da4247146101c157806356b96ccc146101f157806360f270ff1461020d5780636dd7d8ea1461022b57610116565b80630b32ff771461011b5780632e6997fe1461013757806335a893a11461015557806347a553ad14610185575b600080fd5b610135600480360381019061013091906128a7565b610363565b005b61013f6105c9565b60405161014c9190612b05565b60405180910390f35b61016f600480360381019061016a9190612b53565b61087d565b60405161017c9190612b8f565b60405180910390f35b61018d6108bc565b60405161019a9190612b8f565b60405180910390f35b6101ab6108e2565b6040516101b89190612bc5565b60405180910390f35b6101db60048036038101906101d69190612b53565b6108f9565b6040516101e89190612b8f565b60405180910390f35b61020b60048036038101906102069190612b53565b610938565b005b610215610b38565b6040516102229190612b05565b60405180910390f35b61024560048036038101906102409190612be0565b610d1b565b005b610261600480360381019061025c9190612c0d565b6110b5565b005b61027d60048036038101906102789190612b53565b61122b565b60405161028d9493929190612caf565b60405180910390f35b6102b060048036038101906102ab9190612d02565b61139b565b005b6102ba6114f8565b6040516102c79190612b8f565b60405180910390f35b6102ea60048036038101906102e59190612b53565b61151e565b005b6102f461193e565b6040516103019190612d7a565b60405180910390f35b610324600480360381019061031f9190612b53565b611948565b604051610332929190612dff565b60405180910390f35b610343611b92565b6040516103509190612f3c565b60405180910390f35b610361611e60565b005b600460009054906101000a900473ffffffffffffffffffffffffffffffffffffffff1673ffffffffffffffffffffffffffffffffffffffff163373ffffffffffffffffffffffffffffffffffffffff16146103f3576040517f08c379a00000000000000000000000000000000000000000000000000000000081526004016103ea90612fd0565b60405180910390fd5b600160009054906101000a900460ff1615610443576040517f08c379a000000000000000000000000000000000000000000000000000000000815260040161043a90613062565b60405180910390fd5b61044b612578565b838160200181905250600081604001818152505082816060018190525081816000019073ffffffffffffffffffffffffffffffffffffffff16908173ffffffffffffffffffffffffffffffffffffffff168152505080600560008473ffffffffffffffffffffffffffffffffffffffff1673ffffffffffffffffffffffffffffffffffffffff16815260200190815260200160002060008201518160000160006101000a81548173ffffffffffffffffffffffffffffffffffffffff021916908373ffffffffffffffffffffffffffffffffffffffff160217905550602082015181600101908161053c919061328e565b5060408201518160020155606082015181600301908161055c919061328e565b509050506007829080600181540180825580915050600190039060005260206000200160009091909190916101000a81548173ffffffffffffffffffffffffffffffffffffffff021916908373ffffffffffffffffffffffffffffffffffffffff16021790555050505050565b6060600060078054905067ffffffffffffffff8111156105ec576105eb61271e565b5b60405190808252806020026020018201604052801561062557816020015b610612612578565b81526020019060019003908161060a5790505b50905060005b6007805490508110156108755760056000600783815481106106505761064f613360565b5b9060005260206000200160009054906101000a900473ffffffffffffffffffffffffffffffffffffffff1673ffffffffffffffffffffffffffffffffffffffff1673ffffffffffffffffffffffffffffffffffffffff1681526020019081526020016000206040518060800160405290816000820160009054906101000a900473ffffffffffffffffffffffffffffffffffffffff1673ffffffffffffffffffffffffffffffffffffffff1673ffffffffffffffffffffffffffffffffffffffff168152602001600182018054610726906130b1565b80601f0160208091040260200160405190810160405280929190818152602001828054610752906130b1565b801561079f5780601f106107745761010080835404028352916020019161079f565b820191906000526020600020905b81548152906001019060200180831161078257829003601f168201915b50505050508152602001600282015481526020016003820180546107c2906130b1565b80601f01602080910402602001604051908101604052809291908181526020018280546107ee906130b1565b801561083b5780601f106108105761010080835404028352916020019161083b565b820191906000526020600020905b81548152906001019060200180831161081e57829003601f168201915b50505050508152505082828151811061085757610856613360565b5b6020026020010181905250808061086d906133be565b91505061062b565b819250505090565b6007818154811061088d57600080fd5b906000526020600020016000915054906101000a900473ffffffffffffffffffffffffffffffffffffffff1681565b600b60009054906101000a900473ffffffffffffffffffffffffffffffffffffffff1681565b6000600160009054906101000a900460ff16905090565b6008818154811061090957600080fd5b906000526020600020016000915054906101000a900473ffffffffffffffffffffffffffffffffffffffff1681565b600460009054906101000a900473ffffffffffffffffffffffffffffffffffffffff1673ffffffffffffffffffffffffffffffffffffffff163373ffffffffffffffffffffffffffffffffffffffff16146109c8576040517f08c379a00000000000000000000000000000000000000000000000000000000081526004016109bf90613478565b60405180910390fd5b600960016009805490506109dc9190613498565b815481106109ed576109ec613360565b5b906000526020600020906004020160098281548110610a0f57610a0e613360565b5b90600052602060002090600402016000820160009054906101000a900473ffffffffffffffffffffffffffffffffffffffff168160000160006101000a81548173ffffffffffffffffffffffffffffffffffffffff021916908373ffffffffffffffffffffffffffffffffffffffff16021790555060018201816001019081610a9891906134e2565b506002820154816002015560038201816003019081610ab791906134e2565b509050506009805480610acd57610acc6135ca565b5b6001900381819060005260206000209060040201600080820160006101000a81549073ffffffffffffffffffffffffffffffffffffffff0219169055600182016000610b1991906125b6565b6002820160009055600382016000610b3191906125b6565b5050905550565b60606009805480602002602001604051908101604052809291908181526020016000905b82821015610d1257838290600052602060002090600402016040518060800160405290816000820160009054906101000a900473ffffffffffffffffffffffffffffffffffffffff1673ffffffffffffffffffffffffffffffffffffffff1673ffffffffffffffffffffffffffffffffffffffff168152602001600182018054610be5906130b1565b80601f0160208091040260200160405190810160405280929190818152602001828054610c11906130b1565b8015610c5e5780601f10610c3357610100808354040283529160200191610c5e565b820191906000526020600020905b815481529060010190602001808311610c4157829003601f168201915b5050505050815260200160028201548152602001600382018054610c81906130b1565b80601f0160208091040260200160405190810160405280929190818152602001828054610cad906130b1565b8015610cfa5780601f10610ccf57610100808354040283529160200191610cfa565b820191906000526020600020905b815481529060010190602001808311610cdd57829003601f168201915b50505050508152505081526020019060010190610b5c565b50505050905090565b6000600660003373ffffffffffffffffffffffffffffffffffffffff1673ffffffffffffffffffffffffffffffffffffffff16815260200190815260200160002060000160149054906101000a900460ff1690508015610db0576040517f08c379a0000000000000000000000000000000000000000000000000000000008152600401610da790613645565b60405180910390fd5b600160009054906101000a900460ff16610dff576040517f08c379a0000000000000000000000000000000000000000000000000000000008152600401610df6906136b1565b60405180910390fd5b600460009054906101000a900473ffffffffffffffffffffffffffffffffffffffff1673ffffffffffffffffffffffffffffffffffffffff163373ffffffffffffffffffffffffffffffffffffffff1603610e8f576040517f08c379a0000000000000000000000000000000000000000000000000000000008152600401610e869061371d565b60405180910390fd5b3373ffffffffffffffffffffffffffffffffffffffff168273ffffffffffffffffffffffffffffffffffffffff1603610efd576040517f08c379a0000000000000000000000000000000000000000000000000000000008152600401610ef490613789565b60405180910390fd5b610f056125f6565b33816000019073ffffffffffffffffffffffffffffffffffffffff16908173ffffffffffffffffffffffffffffffffffffffff1681525050600181602001901515908115158152505080600660003373ffffffffffffffffffffffffffffffffffffffff1673ffffffffffffffffffffffffffffffffffffffff16815260200190815260200160002060008201518160000160006101000a81548173ffffffffffffffffffffffffffffffffffffffff021916908373ffffffffffffffffffffffffffffffffffffffff16021790555060208201518160000160146101000a81548160ff021916908315150217905550905050600254600560008573ffffffffffffffffffffffffffffffffffffffff1673ffffffffffffffffffffffffffffffffffffffff1681526020019081526020016000206002016000815461104a906133be565b91905081905511156110b05782600b60006101000a81548173ffffffffffffffffffffffffffffffffffffffff021916908373ffffffffffffffffffffffffffffffffffffffff160217905550600260008154809291906110aa906133be565b91905055505b505050565b600460009054906101000a900473ffffffffffffffffffffffffffffffffffffffff1673ffffffffffffffffffffffffffffffffffffffff163373ffffffffffffffffffffffffffffffffffffffff1614611145576040517f08c379a000000000000000000000000000000000000000000000000000000000815260040161113c9061381b565b60405180910390fd5b6002600780549050101561118e576040517f08c379a0000000000000000000000000000000000000000000000000000000008152600401611185906138ad565b60405180910390fd5b600160009054906101000a900460ff16156111de576040517f08c379a00000000000000000000000000000000000000000000000000000000081526004016111d590613919565b60405180910390fd5b60018060006101000a81548160ff0219169083151502179055508060009081611207919061328e565b50600060028190555060036000815480929190611223906133be565b919050555050565b6009818154811061123b57600080fd5b90600052602060002090600402016000915090508060000160009054906101000a900473ffffffffffffffffffffffffffffffffffffffff1690806001018054611284906130b1565b80601f01602080910402602001604051908101604052809291908181526020018280546112b0906130b1565b80156112fd5780601f106112d2576101008083540402835291602001916112fd565b820191906000526020600020905b8154815290600101906020018083116112e057829003601f168201915b505050505090806002015490806003018054611318906130b1565b80601f0160208091040260200160405190810160405280929190818152602001828054611344906130b1565b80156113915780601f1061136657610100808354040283529160200191611391565b820191906000526020600020905b81548152906001019060200180831161137457829003601f168201915b5050505050905084565b600160009054906101000a900460ff16156113eb576040517f08c379a00000000000000000000000000000000000000000000000000000000081526004016113e290613985565b60405180910390fd5b6113f3612578565b828160200181905250818160600181905250600081604001818152505033816000019073ffffffffffffffffffffffffffffffffffffffff16908173ffffffffffffffffffffffffffffffffffffffff1681525050600981908060018154018082558091505060019003906000526020600020906004020160009091909190915060008201518160000160006101000a81548173ffffffffffffffffffffffffffffffffffffffff021916908373ffffffffffffffffffffffffffffffffffffffff16021790555060208201518160010190816114d0919061328e565b506040820151816002015560608201518160030190816114f0919061328e565b505050505050565b600460009054906101000a900473ffffffffffffffffffffffffffffffffffffffff1681565b600160009054906101000a900460ff161561156e576040517f08c379a000000000000000000000000000000000000000000000000000000000815260040161156590613062565b60405180910390fd5b600980549050811080611582575060008110155b6115c1576040517f08c379a00000000000000000000000000000000000000000000000000000000081526004016115b8906139f1565b60405180910390fd5b600460009054906101000a900473ffffffffffffffffffffffffffffffffffffffff1673ffffffffffffffffffffffffffffffffffffffff163373ffffffffffffffffffffffffffffffffffffffff1614611651576040517f08c379a000000000000000000000000000000000000000000000000000000000815260040161164890613478565b60405180910390fd5b60006009828154811061166757611666613360565b5b90600052602060002090600402016040518060800160405290816000820160009054906101000a900473ffffffffffffffffffffffffffffffffffffffff1673ffffffffffffffffffffffffffffffffffffffff1673ffffffffffffffffffffffffffffffffffffffff1681526020016001820180546116e6906130b1565b80601f0160208091040260200160405190810160405280929190818152602001828054611712906130b1565b801561175f5780601f106117345761010080835404028352916020019161175f565b820191906000526020600020905b81548152906001019060200180831161174257829003601f168201915b5050505050815260200160028201548152602001600382018054611782906130b1565b80601f01602080910402602001604051908101604052809291908181526020018280546117ae906130b1565b80156117fb5780601f106117d0576101008083540402835291602001916117fb565b820191906000526020600020905b8154815290600101906020018083116117de57829003601f168201915b50505050508152505090508060056000836000015173ffffffffffffffffffffffffffffffffffffffff1673ffffffffffffffffffffffffffffffffffffffff16815260200190815260200160002060008201518160000160006101000a81548173ffffffffffffffffffffffffffffffffffffffff021916908373ffffffffffffffffffffffffffffffffffffffff16021790555060208201518160010190816118a6919061328e565b506040820151816002015560608201518160030190816118c6919061328e565b50905050600781600001519080600181540180825580915050600190039060005260206000200160009091909190916101000a81548173ffffffffffffffffffffffffffffffffffffffff021916908373ffffffffffffffffffffffffffffffffffffffff16021790555061193a82610938565b5050565b6000600354905090565b600a818154811061195857600080fd5b9060005260206000209060050201600091509050806000016040518060800160405290816000820160009054906101000a900473ffffffffffffffffffffffffffffffffffffffff1673ffffffffffffffffffffffffffffffffffffffff1673ffffffffffffffffffffffffffffffffffffffff1681526020016001820180546119e1906130b1565b80601f0160208091040260200160405190810160405280929190818152602001828054611a0d906130b1565b8015611a5a5780601f10611a2f57610100808354040283529160200191611a5a565b820191906000526020600020905b815481529060010190602001808311611a3d57829003601f168201915b5050505050815260200160028201548152602001600382018054611a7d906130b1565b80601f0160208091040260200160405190810160405280929190818152602001828054611aa9906130b1565b8015611af65780601f10611acb57610100808354040283529160200191611af6565b820191906000526020600020905b815481529060010190602001808311611ad957829003601f168201915b50505050508152505090806004018054611b0f906130b1565b80601f0160208091040260200160405190810160405280929190818152602001828054611b3b906130b1565b8015611b885780601f10611b5d57610100808354040283529160200191611b88565b820191906000526020600020905b815481529060010190602001808311611b6b57829003601f168201915b5050505050905082565b6060600060035411611bd9576040517f08c379a0000000000000000000000000000000000000000000000000000000008152600401611bd090613a5d565b60405180910390fd5b600a805480602002602001604051908101604052809291908181526020016000905b82821015611e575783829060005260206000209060050201604051806040016040529081600082016040518060800160405290816000820160009054906101000a900473ffffffffffffffffffffffffffffffffffffffff1673ffffffffffffffffffffffffffffffffffffffff1673ffffffffffffffffffffffffffffffffffffffff168152602001600182018054611c94906130b1565b80601f0160208091040260200160405190810160405280929190818152602001828054611cc0906130b1565b8015611d0d5780601f10611ce257610100808354040283529160200191611d0d565b820191906000526020600020905b815481529060010190602001808311611cf057829003601f168201915b5050505050815260200160028201548152602001600382018054611d30906130b1565b80601f0160208091040260200160405190810160405280929190818152602001828054611d5c906130b1565b8015611da95780601f10611d7e57610100808354040283529160200191611da9565b820191906000526020600020905b815481529060010190602001808311611d8c57829003601f168201915b5050505050815250508152602001600482018054611dc6906130b1565b80601f0160208091040260200160405190810160405280929190818152602001828054611df2906130b1565b8015611e3f5780601f10611e1457610100808354040283529160200191611e3f565b820191906000526020600020905b815481529060010190602001808311611e2257829003601f168201915b50505050508152505081526020019060010190611bfb565b50505050905090565b600460009054906101000a900473ffffffffffffffffffffffffffffffffffffffff1673ffffffffffffffffffffffffffffffffffffffff163373ffffffffffffffffffffffffffffffffffffffff1614611ef0576040517f08c379a0000000000000000000000000000000000000000000000000000000008152600401611ee79061381b565b60405180910390fd5b600160009054906101000a900460ff16611f3f576040517f08c379a0000000000000000000000000000000000000000000000000000000008152600401611f3690613ac9565b60405180910390fd5b6000600160006101000a81548160ff0219169083151502179055506001600254106122c557611f6c612628565b60056000600b60009054906101000a900473ffffffffffffffffffffffffffffffffffffffff1673ffffffffffffffffffffffffffffffffffffffff1673ffffffffffffffffffffffffffffffffffffffff1681526020019081526020016000206040518060800160405290816000820160009054906101000a900473ffffffffffffffffffffffffffffffffffffffff1673ffffffffffffffffffffffffffffffffffffffff1673ffffffffffffffffffffffffffffffffffffffff16815260200160018201805461203e906130b1565b80601f016020809104026020016040519081016040528092919081815260200182805461206a906130b1565b80156120b75780601f1061208c576101008083540402835291602001916120b7565b820191906000526020600020905b81548152906001019060200180831161209a57829003601f168201915b50505050508152602001600282015481526020016003820180546120da906130b1565b80601f0160208091040260200160405190810160405280929190818152602001828054612106906130b1565b80156121535780601f1061212857610100808354040283529160200191612153565b820191906000526020600020905b81548152906001019060200180831161213657829003601f168201915b505050505081525050816000018190525060008054612171906130b1565b80601f016020809104026020016040519081016040528092919081815260200182805461219d906130b1565b80156121ea5780601f106121bf576101008083540402835291602001916121ea565b820191906000526020600020905b8154815290600101906020018083116121cd57829003601f168201915b50505050508160200181905250600a81908060018154018082558091505060019003906000526020600020906005020160009091909190915060008201518160000160008201518160000160006101000a81548173ffffffffffffffffffffffffffffffffffffffff021916908373ffffffffffffffffffffffffffffffffffffffff1602179055506020820151816001019081612288919061328e565b506040820151816002015560608201518160030190816122a8919061328e565b50505060208201518160040190816122c0919061328e565b505050505b60405180602001604052806000815250600090816122e3919061328e565b5060005b6007805490508110156123d657600560006007838154811061230c5761230b613360565b5b9060005260206000200160009054906101000a900473ffffffffffffffffffffffffffffffffffffffff1673ffffffffffffffffffffffffffffffffffffffff1673ffffffffffffffffffffffffffffffffffffffff168152602001908152602001600020600080820160006101000a81549073ffffffffffffffffffffffffffffffffffffffff02191690556001820160006123a991906125b6565b60028201600090556003820160006123c191906125b6565b505080806123ce906133be565b9150506122e7565b5060005b6008805490508110156124b55760066000600883815481106123ff576123fe613360565b5b9060005260206000200160009054906101000a900473ffffffffffffffffffffffffffffffffffffffff1673ffffffffffffffffffffffffffffffffffffffff1673ffffffffffffffffffffffffffffffffffffffff168152602001908152602001600020600080820160006101000a81549073ffffffffffffffffffffffffffffffffffffffff02191690556000820160146101000a81549060ff0219169055505080806124ad906133be565b9150506123da565b50600067ffffffffffffffff8111156124d1576124d061271e565b5b6040519080825280602002602001820160405280156124ff5781602001602082028036833780820191505090505b5060079080519060200190612515929190612648565b50600067ffffffffffffffff8111156125315761253061271e565b5b60405190808252806020026020018201604052801561255f5781602001602082028036833780820191505090505b5060089080519060200190612575929190612648565b50565b6040518060800160405280600073ffffffffffffffffffffffffffffffffffffffff1681526020016060815260200160008152602001606081525090565b5080546125c2906130b1565b6000825580601f106125d457506125f3565b601f0160209004906000526020600020908101906125f291906126d2565b5b50565b6040518060400160405280600073ffffffffffffffffffffffffffffffffffffffff1681526020016000151581525090565b604051806040016040528061263b612578565b8152602001606081525090565b8280548282559060005260206000209081019282156126c1579160200282015b828111156126c05782518260006101000a81548173ffffffffffffffffffffffffffffffffffffffff021916908373ffffffffffffffffffffffffffffffffffffffff16021790555091602001919060010190612668565b5b5090506126ce91906126d2565b5090565b5b808211156126eb5760008160009055506001016126d3565b5090565b6000604051905090565b600080fd5b600080fd5b600080fd5b600080fd5b6000601f19601f8301169050919050565b7f4e487b7100000000000000000000000000000000000000000000000000000000600052604160045260246000fd5b6127568261270d565b810181811067ffffffffffffffff821117156127755761277461271e565b5b80604052505050565b60006127886126ef565b9050612794828261274d565b919050565b600067ffffffffffffffff8211156127b4576127b361271e565b5b6127bd8261270d565b9050602081019050919050565b82818337600083830152505050565b60006127ec6127e784612799565b61277e565b90508281526020810184848401111561280857612807612708565b5b6128138482856127ca565b509392505050565b600082601f8301126128305761282f612703565b5b81356128408482602086016127d9565b91505092915050565b600073ffffffffffffffffffffffffffffffffffffffff82169050919050565b600061287482612849565b9050919050565b61288481612869565b811461288f57600080fd5b50565b6000813590506128a18161287b565b92915050565b6000806000606084860312156128c0576128bf6126f9565b5b600084013567ffffffffffffffff8111156128de576128dd6126fe565b5b6128ea8682870161281b565b935050602084013567ffffffffffffffff81111561290b5761290a6126fe565b5b6129178682870161281b565b925050604061292886828701612892565b9150509250925092565b600081519050919050565b600082825260208201905092915050565b6000819050602082019050919050565b61296781612869565b82525050565b600081519050919050565b600082825260208201905092915050565b60005b838110156129a757808201518184015260208101905061298c565b60008484015250505050565b60006129be8261296d565b6129c88185612978565b93506129d8818560208601612989565b6129e18161270d565b840191505092915050565b6000819050919050565b6129ff816129ec565b82525050565b6000608083016000830151612a1d600086018261295e565b5060208301518482036020860152612a3582826129b3565b9150506040830151612a4a60408601826129f6565b5060608301518482036060860152612a6282826129b3565b9150508091505092915050565b6000612a7b8383612a05565b905092915050565b6000602082019050919050565b6000612a9b82612932565b612aa5818561293d565b935083602082028501612ab78561294e565b8060005b85811015612af35784840389528151612ad48582612a6f565b9450612adf83612a83565b925060208a01995050600181019050612abb565b50829750879550505050505092915050565b60006020820190508181036000830152612b1f8184612a90565b905092915050565b612b30816129ec565b8114612b3b57600080fd5b50565b600081359050612b4d81612b27565b92915050565b600060208284031215612b6957612b686126f9565b5b6000612b7784828501612b3e565b91505092915050565b612b8981612869565b82525050565b6000602082019050612ba46000830184612b80565b92915050565b60008115159050919050565b612bbf81612baa565b82525050565b6000602082019050612bda6000830184612bb6565b92915050565b600060208284031215612bf657612bf56126f9565b5b6000612c0484828501612892565b91505092915050565b600060208284031215612c2357612c226126f9565b5b600082013567ffffffffffffffff811115612c4157612c406126fe565b5b612c4d8482850161281b565b91505092915050565b600082825260208201905092915050565b6000612c728261296d565b612c7c8185612c56565b9350612c8c818560208601612989565b612c958161270d565b840191505092915050565b612ca9816129ec565b82525050565b6000608082019050612cc46000830187612b80565b8181036020830152612cd68186612c67565b9050612ce56040830185612ca0565b8181036060830152612cf78184612c67565b905095945050505050565b60008060408385031215612d1957612d186126f9565b5b600083013567ffffffffffffffff811115612d3757612d366126fe565b5b612d438582860161281b565b925050602083013567ffffffffffffffff811115612d6457612d636126fe565b5b612d708582860161281b565b9150509250929050565b6000602082019050612d8f6000830184612ca0565b92915050565b6000608083016000830151612dad600086018261295e565b5060208301518482036020860152612dc582826129b3565b9150506040830151612dda60408601826129f6565b5060608301518482036060860152612df282826129b3565b9150508091505092915050565b60006040820190508181036000830152612e198185612d95565b90508181036020830152612e2d8184612c67565b90509392505050565b600081519050919050565b600082825260208201905092915050565b6000819050602082019050919050565b60006040830160008301518482036000860152612e7f8282612a05565b91505060208301518482036020860152612e9982826129b3565b9150508091505092915050565b6000612eb28383612e62565b905092915050565b6000602082019050919050565b6000612ed282612e36565b612edc8185612e41565b935083602082028501612eee85612e52565b8060005b85811015612f2a5784840389528151612f0b8582612ea6565b9450612f1683612eba565b925060208a01995050600181019050612ef2565b50829750879550505050505092915050565b60006020820190508181036000830152612f568184612ec7565b905092915050565b7f54686973206f7065726174696f6e2063616e206f6e6c7920626520706572666f60008201527f726d6564206279206f776e657200000000000000000000000000000000000000602082015250565b6000612fba602d83612c56565b9150612fc582612f5e565b604082019050919050565b60006020820190508181036000830152612fe981612fad565b9050919050565b7f596f752063616e2774206164642063616e64696461746520696e2072756e6e6960008201527f6e6720766f74696e670000000000000000000000000000000000000000000000602082015250565b600061304c602983612c56565b915061305782612ff0565b604082019050919050565b6000602082019050818103600083015261307b8161303f565b9050919050565b7f4e487b7100000000000000000000000000000000000000000000000000000000600052602260045260246000fd5b600060028204905060018216806130c957607f821691505b6020821081036130dc576130db613082565b5b50919050565b60008190508160005260206000209050919050565b60006020601f8301049050919050565b600082821b905092915050565b6000600883026131447fffffffffffffffffffffffffffffffffffffffffffffffffffffffffffffffff82613107565b61314e8683613107565b95508019841693508086168417925050509392505050565b6000819050919050565b600061318b613186613181846129ec565b613166565b6129ec565b9050919050565b6000819050919050565b6131a583613170565b6131b96131b182613192565b848454613114565b825550505050565b600090565b6131ce6131c1565b6131d981848461319c565b505050565b5b818110156131fd576131f26000826131c6565b6001810190506131df565b5050565b601f82111561324257613213816130e2565b61321c846130f7565b8101602085101561322b578190505b61323f613237856130f7565b8301826131de565b50505b505050565b600082821c905092915050565b600061326560001984600802613247565b1980831691505092915050565b600061327e8383613254565b9150826002028217905092915050565b6132978261296d565b67ffffffffffffffff8111156132b0576132af61271e565b5b6132ba82546130b1565b6132c5828285613201565b600060209050601f8311600181146132f857600084156132e6578287015190505b6132f08582613272565b865550613358565b601f198416613306866130e2565b60005b8281101561332e57848901518255600182019150602085019450602081019050613309565b8683101561334b5784890151613347601f891682613254565b8355505b6001600288020188555050505b505050505050565b7f4e487b7100000000000000000000000000000000000000000000000000000000600052603260045260246000fd5b7f4e487b7100000000000000000000000000000000000000000000000000000000600052601160045260246000fd5b60006133c9826129ec565b91507fffffffffffffffffffffffffffffffffffffffffffffffffffffffffffffffff82036133fb576133fa61338f565b5b600182019050919050565b7f5468697320616374696f6e2063616e206f6e6c7920626520706572666f726d6560008201527f64206279206f776e657200000000000000000000000000000000000000000000602082015250565b6000613462602a83612c56565b915061346d82613406565b604082019050919050565b6000602082019050818103600083015261349181613455565b9050919050565b60006134a3826129ec565b91506134ae836129ec565b92508282039050818111156134c6576134c561338f565b5b92915050565b6000815490506134db816130b1565b9050919050565b8181036134f05750506135c8565b6134f9826134cc565b67ffffffffffffffff8111156135125761351161271e565b5b61351c82546130b1565b613527828285613201565b6000601f8311600181146135565760008415613544578287015490505b61354e8582613272565b8655506135c1565b601f198416613564876130e2565b965061356f866130e2565b60005b8281101561359757848901548255600182019150600185019450602081019050613572565b868310156135b457848901546135b0601f891682613254565b8355505b6001600288020188555050505b5050505050505b565b7f4e487b7100000000000000000000000000000000000000000000000000000000600052603160045260246000fd5b7f596f75206861766520616c726561647920766f74650000000000000000000000600082015250565b600061362f601583612c56565b915061363a826135f9565b602082019050919050565b6000602082019050818103600083015261365e81613622565b9050919050565b7f566f74696e67206973206e6f7420737461727465642079657400000000000000600082015250565b600061369b601983612c56565b91506136a682613665565b602082019050919050565b600060208201905081810360008301526136ca8161368e565b9050919050565b7f4f776e65722063616e6e6f7420766f7465000000000000000000000000000000600082015250565b6000613707601183612c56565b9150613712826136d1565b602082019050919050565b60006020820190508181036000830152613736816136fa565b9050919050565b7f596f752063616e6e6f7420766f746520796f757273656c660000000000000000600082015250565b6000613773601883612c56565b915061377e8261373d565b602082019050919050565b600060208201905081810360008301526137a281613766565b9050919050565b7f5468697320616374696f6e2063616e206f6e6c7920626520706572666f726d6560008201527f64206279204f776e657200000000000000000000000000000000000000000000602082015250565b6000613805602a83612c56565b9150613810826137a9565b604082019050919050565b60006020820190508181036000830152613834816137f8565b9050919050565b7f5468657265206973206e6f2063616e64696461746520746f207374617274207660008201527f6f74650000000000000000000000000000000000000000000000000000000000602082015250565b6000613897602383612c56565b91506138a28261383b565b604082019050919050565b600060208201905081810360008301526138c68161388a565b9050919050565b7f53746f702063757272656e7420766f74696e6700000000000000000000000000600082015250565b6000613903601383612c56565b915061390e826138cd565b602082019050919050565b60006020820190508181036000830152613932816138f6565b9050919050565b7f596f752063616e2774207265676973746572206e6f772e000000000000000000600082015250565b600061396f601783612c56565b915061397a82613939565b602082019050919050565b6000602082019050818103600083015261399e81613962565b9050919050565b7f496e76616c696420696e64657800000000000000000000000000000000000000600082015250565b60006139db600d83612c56565b91506139e6826139a5565b602082019050919050565b60006020820190508181036000830152613a0a816139ce565b9050919050565b7f5468657265206973206e6f206c6173742057696e6e6572000000000000000000600082015250565b6000613a47601783612c56565b9150613a5282613a11565b602082019050919050565b60006020820190508181036000830152613a7681613a3a565b9050919050565b7f566f74696e67206973206e6f7420796574207374617274656400000000000000600082015250565b6000613ab3601983612c56565b9150613abe82613a7d565b602082019050919050565b60006020820190508181036000830152613ae281613aa6565b905091905056fea2646970667358221220b6c16f35e42cbd0a16b04cfd1635d529b6fd2756d05939546714922480aaca7a64736f6c63430008110033",
  "immutableReferences": {},
  "source": "// SPDX-License-Identifier: MIT\npragma solidity ^0.8.0;\n\ncontract Voting {\n    struct Candidate{\n        address candidateAddress;\n        string name;\n        uint numberOfVotes;\n        string party;\n    }\n    struct Voter{\n        address voterAddress;\n        bool isVoted; \n    }\n    struct LastWinner{\n        Candidate candidate;\n        string title;\n    }\n    string title;\n    bool status;\n    uint256 maxVote;\n    uint256 votingCount;\n    address public owner;\n    mapping (address => Candidate) candidates;\n    mapping (address => Voter) voters;\n    address[] public candidateArray;\n    address[] public votersArray;\n    Candidate[] public requestedCandidate;\n    LastWinner[] public lastWinners;\n    address public leadingCandidate;\n    \n    constructor(){\n        owner = msg.sender;\n        status = false;\n        votingCount =0;\n    }\n    function getVotingCount() public view returns(uint256){\n        return votingCount;\n    }\n    function getStatus() public view returns(bool){\n        return status;\n    }\n    function getLastWinner() public view returns(LastWinner[] memory){\n        require(votingCount>0,\"There is no last Winner\");\n        return lastWinners;\n    }\n    function startVoting(string memory _title) public{\n        require(msg.sender==owner,\"This action can only be performed by Owner\");\n        require(candidateArray.length>=2,\"There is no candidate to start vote\");\n        require(!status,\"Stop current voting\");\n        status=true;\n        title = _title;\n        maxVote = 0;\n        votingCount++;\n    }\n    function stopVoting() public{\n        require(msg.sender==owner,\"This action can only be performed by Owner\");\n        require(status,\"Voting is not yet started\");\n        status=false;\n        if(maxVote >= 1){\n            LastWinner memory last;\n            last.candidate = candidates[leadingCandidate];\n            last.title = title;\n            lastWinners.push(last);\n        }\n        title = \"\";\n        for(uint256 i=0;i<candidateArray.length;i++){\n            delete candidates[candidateArray[i]];\n        }\n        for(uint256 i=0;i<votersArray.length;i++){\n            delete voters[votersArray[i]];\n        }\n        candidateArray = new address[](0);\n        votersArray = new address[](0);\n    }\n    function addCandidate(string memory _name,string memory _party,address _candidateAddress) public{\n        require(msg.sender==owner,\"This operation can only be performed by owner\");\n        require(!status,\"You can't add candidate in running voting\");\n        Candidate memory c;\n        c.name = _name;\n        c.numberOfVotes = 0;\n        c.party=_party;\n        c.candidateAddress = _candidateAddress;\n        candidates[_candidateAddress]=c;\n        candidateArray.push(_candidateAddress);\n    }\n    function getAllCandidates() public view returns(Candidate[] memory){\n        Candidate[] memory result = new Candidate[](candidateArray.length);\n        uint256 i = 0;\n        for(i=0;i<candidateArray.length;i++){\n            result[i]=candidates[candidateArray[i]];\n        }\n        return result;\n    }\n    function vote(address _candidate) public{\n        bool isVoted = voters[msg.sender].isVoted;\n        require(!isVoted ,\"You have already vote\");\n        require(status,\"Voting is not started yet\");\n        require(msg.sender!=owner,\"Owner cannot vote\");\n        require(_candidate!=msg.sender,\"You cannot vote yourself\");\n        Voter memory v;\n        v.voterAddress = msg.sender;\n        v.isVoted = true;\n        voters[msg.sender] = v;\n        if(++candidates[_candidate].numberOfVotes > maxVote){\n            leadingCandidate = _candidate;\n            maxVote++;\n        }\n    }\n    function registerForCandidate(string memory _name,string memory _party) public{\n        require(!status,\"You can't register now.\");\n        Candidate memory c;\n        c.name = _name;\n        c.party = _party;\n        c.numberOfVotes = 0;\n        c.candidateAddress = msg.sender;\n        requestedCandidate.push(c);\n    }\n    function getRequestedCandidates() public view returns (Candidate[] memory) {\n        return requestedCandidate;\n    }\n    function acceptCandidate(uint index) public {\n        require(!status,\"You can't add candidate in running voting\");\n        require(index < requestedCandidate.length || index >= 0, \"Invalid index\");\n        require(msg.sender == owner,\"This action can only be performed by owner\"\n        );\n        Candidate memory c = requestedCandidate[index];\n        candidates[c.candidateAddress]=c;\n        candidateArray.push(c.candidateAddress);\n        removeRequestedCandidate(index);\n    }\n    function removeRequestedCandidate(uint index) public {\n        require(msg.sender == owner,\"This action can only be performed by owner\");\n        requestedCandidate[index] = requestedCandidate[requestedCandidate.length - 1];\n        requestedCandidate.pop();\n    }\n}\n",
  "sourcePath": "/home/pervysage/vs-code/Blockchain/E-Voting-System/e-voting-system/src/backend/contracts/Voting.sol",
  "compiler": {
    "name": "solc",
    "version": "0.8.17+commit.8df45f5f.Emscripten.clang"
  },
  "schemaVersion": "3.4.10",
  "updatedAt": "2022-12-14T18:24:02.935Z",
  "networkType": "ethereum",
  "devdoc": {
    "kind": "dev",
    "methods": {},
    "version": 1
  },
  "userdoc": {
    "kind": "user",
    "methods": {},
    "version": 1
  }
}